{
  "_format": "hh-sol-artifact-1",
  "contractName": "GasClaim",
  "sourceName": "contracts/GasClaim.sol",
  "abi": [
    {
      "inputs": [],
      "name": "availableFunds",
      "outputs": [
        {
          "internalType": "uint256",
          "name": "",
          "type": "uint256"
        }
      ],
      "stateMutability": "view",
      "type": "function"
    },
    {
      "inputs": [
        {
          "internalType": "uint256",
          "name": "_amount",
          "type": "uint256"
        }
      ],
      "name": "fund",
      "outputs": [
        {
          "internalType": "uint256",
          "name": "",
          "type": "uint256"
        }
      ],
      "stateMutability": "nonpayable",
      "type": "function"
    },
    {
      "inputs": [
        {
          "internalType": "uint256",
          "name": "_amount",
          "type": "uint256"
        }
      ],
      "name": "withdraw",
      "outputs": [
        {
          "internalType": "uint256",
          "name": "",
          "type": "uint256"
        }
      ],
      "stateMutability": "nonpayable",
      "type": "function"
    }
  ],
  "bytecode": "0x60806040526000805534801561001457600080fd5b50610421806100246000396000f3fe608060405234801561001057600080fd5b50600436106100415760003560e01c80632e1a7d4d1461004657806346fcff4c14610076578063ca1d209d14610094575b600080fd5b610060600480360381019061005b919061017d565b6100c4565b60405161006d91906101f8565b60405180910390f35b61007e61013e565b60405161008b91906101f8565b60405180910390f35b6100ae60048036038101906100a9919061017d565b610144565b6040516100bb91906101f8565b60405180910390f35b600080826000546100d5919061027a565b9050600081121561011b576040517f08c379a0000000000000000000000000000000000000000000000000000000008152600401610112906101d8565b60405180910390fd5b8260008082825461012c919061030e565b92505081905550600054915050919050565b60005481565b6000816000808282546101579190610224565b925050819055506000549050919050565b600081359050610177816103d4565b92915050565b60006020828403121561018f57600080fd5b600061019d84828501610168565b91505092915050565b60006101b3603483610213565b91506101be82610385565b604082019050919050565b6101d28161034c565b82525050565b600060208201905081810360008301526101f1816101a6565b9050919050565b600060208201905061020d60008301846101c9565b92915050565b600082825260208201905092915050565b600061022f8261034c565b915061023a8361034c565b9250827fffffffffffffffffffffffffffffffffffffffffffffffffffffffffffffffff0382111561026f5761026e610356565b5b828201905092915050565b600061028582610342565b915061029083610342565b9250827f8000000000000000000000000000000000000000000000000000000000000000018212600084121516156102cb576102ca610356565b5b827f7fffffffffffffffffffffffffffffffffffffffffffffffffffffffffffffff01821360008412161561030357610302610356565b5b828203905092915050565b60006103198261034c565b91506103248361034c565b92508282101561033757610336610356565b5b828203905092915050565b6000819050919050565b6000819050919050565b7f4e487b7100000000000000000000000000000000000000000000000000000000600052601160045260246000fd5b7f547279696e6720746f207769746864726177206d6f726520746f6b656e73207460008201527f68616e2074686520636f6e747261637420686173000000000000000000000000602082015250565b6103dd8161034c565b81146103e857600080fd5b5056fea264697066735822122095f2cd76f87d690935acee6780b3fc0b1044aac7b75ec21729d46cc547683fe064736f6c63430008040033",
  "linkReferences": {},
  "deployedLinkReferences": {}
}