{
  "_format": "hh-sol-artifact-1",
  "contractName": "GasClaim",
  "sourceName": "contracts/GasClaim.sol",
  "abi": [
    {
      "anonymous": false,
      "inputs": [
        {
          "indexed": true,
          "internalType": "address",
          "name": "previousOwner",
          "type": "address"
        },
        {
          "indexed": true,
          "internalType": "address",
          "name": "newOwner",
          "type": "address"
        }
      ],
      "name": "OwnershipTransferred",
      "type": "event"
    },
    {
      "inputs": [
        {
          "internalType": "address",
          "name": "_address",
          "type": "address"
        }
      ],
      "name": "addWallet",
      "outputs": [],
      "stateMutability": "nonpayable",
      "type": "function"
    },
    {
      "inputs": [],
      "name": "availableFunds",
      "outputs": [
        {
          "internalType": "uint256",
          "name": "",
          "type": "uint256"
        }
      ],
      "stateMutability": "view",
      "type": "function"
    },
    {
      "inputs": [],
      "name": "externalFunds",
      "outputs": [
        {
          "internalType": "uint256",
          "name": "",
          "type": "uint256"
        }
      ],
      "stateMutability": "view",
      "type": "function"
    },
    {
      "inputs": [],
      "name": "fund",
      "outputs": [],
      "stateMutability": "payable",
      "type": "function"
    },
    {
      "inputs": [],
      "name": "isOwner",
      "outputs": [
        {
          "internalType": "bool",
          "name": "",
          "type": "bool"
        }
      ],
      "stateMutability": "view",
      "type": "function"
    },
    {
      "inputs": [],
      "name": "owner",
      "outputs": [
        {
          "internalType": "address",
          "name": "",
          "type": "address"
        }
      ],
      "stateMutability": "view",
      "type": "function"
    },
    {
      "inputs": [
        {
          "internalType": "address",
          "name": "_address",
          "type": "address"
        }
      ],
      "name": "removeWallet",
      "outputs": [],
      "stateMutability": "nonpayable",
      "type": "function"
    },
    {
      "inputs": [],
      "name": "renounceOwnership",
      "outputs": [],
      "stateMutability": "nonpayable",
      "type": "function"
    },
    {
      "inputs": [
        {
          "internalType": "address",
          "name": "newOwner",
          "type": "address"
        }
      ],
      "name": "transferOwnership",
      "outputs": [],
      "stateMutability": "nonpayable",
      "type": "function"
    },
    {
      "inputs": [
        {
          "internalType": "address",
          "name": "",
          "type": "address"
        }
      ],
      "name": "wallets",
      "outputs": [
        {
          "internalType": "uint256",
          "name": "",
          "type": "uint256"
        }
      ],
      "stateMutability": "view",
      "type": "function"
    },
    {
      "inputs": [],
      "name": "withdrawAll",
      "outputs": [],
      "stateMutability": "payable",
      "type": "function"
    },
    {
      "inputs": [],
      "name": "withdrawFunds",
      "outputs": [],
      "stateMutability": "payable",
      "type": "function"
    },
    {
      "stateMutability": "payable",
      "type": "receive"
    }
  ],
  "bytecode": "0x60806040526000600155600060025534801561001a57600080fd5b50336000806101000a81548173ffffffffffffffffffffffffffffffffffffffff021916908373ffffffffffffffffffffffffffffffffffffffff16021790555060008054906101000a900473ffffffffffffffffffffffffffffffffffffffff1673ffffffffffffffffffffffffffffffffffffffff16600073ffffffffffffffffffffffffffffffffffffffff167f8be0079c531659141344cd1fd0a4f28419497f9722a3daafe3b4186f6b6457e060405160405180910390a3610a5c806100e56000396000f3fe6080604052600436106100ab5760003560e01c80638da5cb5b116100645780638da5cb5b1461018e5780638f32d59b146101b9578063a75fe8e1146101e4578063b60d42881461020d578063efeb5f1f14610217578063f2fde38b14610240576100cb565b806324600fc3146100d057806342bf52e0146100da57806346fcff4c14610105578063715018a614610130578063853828b61461014757806389b08f1114610151576100cb565b366100cb5734600260008282546100c291906108f0565b92505081905550005b600080fd5b6100d8610269565b005b3480156100e657600080fd5b506100ef6102cd565b6040516100fc91906108c4565b60405180910390f35b34801561011157600080fd5b5061011a6102d3565b60405161012791906108c4565b60405180910390f35b34801561013c57600080fd5b506101456102d9565b005b61014f6103a8565b005b34801561015d57600080fd5b50610178600480360381019061017391906107b2565b610412565b60405161018591906108c4565b60405180910390f35b34801561019a57600080fd5b506101a361042a565b6040516101b0919061084e565b60405180910390f35b3480156101c557600080fd5b506101ce610453565b6040516101db9190610869565b60405180910390f35b3480156101f057600080fd5b5061020b600480360381019061020691906107b2565b6104aa565b005b610215610583565b005b34801561022357600080fd5b5061023e600480360381019061023991906107b2565b6105af565b005b34801561024c57600080fd5b50610267600480360381019061026291906107b2565b610689565b005b610271610453565b61027a57600080fd5b60006001819055503373ffffffffffffffffffffffffffffffffffffffff166108fc6001549081150290604051600060405180830381858888f193505050501580156102ca573d6000803e3d6000fd5b50565b60025481565b60015481565b6102e1610453565b6102ea57600080fd5b600073ffffffffffffffffffffffffffffffffffffffff1660008054906101000a900473ffffffffffffffffffffffffffffffffffffffff1673ffffffffffffffffffffffffffffffffffffffff167f8be0079c531659141344cd1fd0a4f28419497f9722a3daafe3b4186f6b6457e060405160405180910390a360008060006101000a81548173ffffffffffffffffffffffffffffffffffffffff021916908373ffffffffffffffffffffffffffffffffffffffff160217905550565b6103b0610453565b6103b957600080fd5b600060018190555060006002819055503373ffffffffffffffffffffffffffffffffffffffff166108fc479081150290604051600060405180830381858888f1935050505015801561040f573d6000803e3d6000fd5b50565b60036020528060005260406000206000915090505481565b60008060009054906101000a900473ffffffffffffffffffffffffffffffffffffffff16905090565b60008060009054906101000a900473ffffffffffffffffffffffffffffffffffffffff1673ffffffffffffffffffffffffffffffffffffffff163373ffffffffffffffffffffffffffffffffffffffff1614905090565b6104b2610453565b6104bb57600080fd5b6000600360008373ffffffffffffffffffffffffffffffffffffffff1673ffffffffffffffffffffffffffffffffffffffff168152602001908152602001600020541161053d576040517f08c379a000000000000000000000000000000000000000000000000000000000815260040161053490610884565b60405180910390fd5b600360008273ffffffffffffffffffffffffffffffffffffffff1673ffffffffffffffffffffffffffffffffffffffff1681526020019081526020016000206000905550565b61058b610453565b61059457600080fd5b34600160008282546105a691906108f0565b92505081905550565b6105b7610453565b6105c057600080fd5b6000600360008373ffffffffffffffffffffffffffffffffffffffff1673ffffffffffffffffffffffffffffffffffffffff1681526020019081526020016000205414610642576040517f08c379a0000000000000000000000000000000000000000000000000000000008152600401610639906108a4565b60405180910390fd5b42600360008373ffffffffffffffffffffffffffffffffffffffff1673ffffffffffffffffffffffffffffffffffffffff1681526020019081526020016000208190555050565b610691610453565b61069a57600080fd5b6106a3816106a6565b50565b600073ffffffffffffffffffffffffffffffffffffffff168173ffffffffffffffffffffffffffffffffffffffff1614156106e057600080fd5b8073ffffffffffffffffffffffffffffffffffffffff1660008054906101000a900473ffffffffffffffffffffffffffffffffffffffff1673ffffffffffffffffffffffffffffffffffffffff167f8be0079c531659141344cd1fd0a4f28419497f9722a3daafe3b4186f6b6457e060405160405180910390a3806000806101000a81548173ffffffffffffffffffffffffffffffffffffffff021916908373ffffffffffffffffffffffffffffffffffffffff16021790555050565b6000813590506107ac81610a0f565b92915050565b6000602082840312156107c457600080fd5b60006107d28482850161079d565b91505092915050565b6107e481610946565b82525050565b6107f381610958565b82525050565b60006108066015836108df565b9150610811826109bd565b602082019050919050565b60006108296015836108df565b9150610834826109e6565b602082019050919050565b61084881610984565b82525050565b600060208201905061086360008301846107db565b92915050565b600060208201905061087e60008301846107ea565b92915050565b6000602082019050818103600083015261089d816107f9565b9050919050565b600060208201905081810360008301526108bd8161081c565b9050919050565b60006020820190506108d9600083018461083f565b92915050565b600082825260208201905092915050565b60006108fb82610984565b915061090683610984565b9250827fffffffffffffffffffffffffffffffffffffffffffffffffffffffffffffffff0382111561093b5761093a61098e565b5b828201905092915050565b600061095182610964565b9050919050565b60008115159050919050565b600073ffffffffffffffffffffffffffffffffffffffff82169050919050565b6000819050919050565b7f4e487b7100000000000000000000000000000000000000000000000000000000600052601160045260246000fd5b7f41646472657373206e6f7420617661696c61626c650000000000000000000000600082015250565b7f4164647265737320616c72656164792061646465640000000000000000000000600082015250565b610a1881610946565b8114610a2357600080fd5b5056fea2646970667358221220a215975c67a86170099811e377abb306e6c60acf642f73d925f92f9b6b94325f64736f6c63430008040033",
  "linkReferences": {},
  "deployedLinkReferences": {}
}