{
  "_format": "hh-sol-artifact-1",
  "contractName": "GasClaim",
  "sourceName": "contracts/GasClaim.sol",
  "abi": [
    {
      "anonymous": false,
      "inputs": [
        {
          "indexed": true,
          "internalType": "address",
          "name": "previousOwner",
          "type": "address"
        },
        {
          "indexed": true,
          "internalType": "address",
          "name": "newOwner",
          "type": "address"
        }
      ],
      "name": "OwnershipTransferred",
      "type": "event"
    },
    {
      "inputs": [],
      "name": "availableFunds",
      "outputs": [
        {
          "internalType": "uint256",
          "name": "",
          "type": "uint256"
        }
      ],
      "stateMutability": "view",
      "type": "function"
    },
    {
      "inputs": [],
      "name": "externalFunds",
      "outputs": [
        {
          "internalType": "uint256",
          "name": "",
          "type": "uint256"
        }
      ],
      "stateMutability": "view",
      "type": "function"
    },
    {
      "inputs": [],
      "name": "fund",
      "outputs": [],
      "stateMutability": "payable",
      "type": "function"
    },
    {
      "inputs": [],
      "name": "isOwner",
      "outputs": [
        {
          "internalType": "bool",
          "name": "",
          "type": "bool"
        }
      ],
      "stateMutability": "view",
      "type": "function"
    },
    {
      "inputs": [],
      "name": "owner",
      "outputs": [
        {
          "internalType": "address",
          "name": "",
          "type": "address"
        }
      ],
      "stateMutability": "view",
      "type": "function"
    },
    {
      "inputs": [],
      "name": "renounceOwnership",
      "outputs": [],
      "stateMutability": "nonpayable",
      "type": "function"
    },
    {
      "inputs": [
        {
          "internalType": "address",
          "name": "newOwner",
          "type": "address"
        }
      ],
      "name": "transferOwnership",
      "outputs": [],
      "stateMutability": "nonpayable",
      "type": "function"
    },
    {
      "inputs": [],
      "name": "withdrawAll",
      "outputs": [],
      "stateMutability": "payable",
      "type": "function"
    },
    {
      "inputs": [],
      "name": "withdrawFunds",
      "outputs": [],
      "stateMutability": "payable",
      "type": "function"
    },
    {
      "stateMutability": "payable",
      "type": "receive"
    }
  ],
  "bytecode": "0x60806040526000600155600060025534801561001a57600080fd5b50336000806101000a81548173ffffffffffffffffffffffffffffffffffffffff021916908373ffffffffffffffffffffffffffffffffffffffff16021790555060008054906101000a900473ffffffffffffffffffffffffffffffffffffffff1673ffffffffffffffffffffffffffffffffffffffff16600073ffffffffffffffffffffffffffffffffffffffff167f8be0079c531659141344cd1fd0a4f28419497f9722a3daafe3b4186f6b6457e060405160405180910390a36106f8806100e56000396000f3fe60806040526004361061008a5760003560e01c8063853828b611610059578063853828b6146101265780638da5cb5b146101305780638f32d59b1461015b578063b60d428814610186578063f2fde38b14610190576100aa565b806324600fc3146100af57806342bf52e0146100b957806346fcff4c146100e4578063715018a61461010f576100aa565b366100aa5734600260008282546100a191906105de565b92505081905550005b600080fd5b6100b76101b9565b005b3480156100c557600080fd5b506100ce61021d565b6040516100db91906105c3565b60405180910390f35b3480156100f057600080fd5b506100f9610223565b60405161010691906105c3565b60405180910390f35b34801561011b57600080fd5b50610124610229565b005b61012e6102f8565b005b34801561013c57600080fd5b50610145610362565b604051610152919061058d565b60405180910390f35b34801561016757600080fd5b5061017061038b565b60405161017d91906105a8565b60405180910390f35b61018e6103e2565b005b34801561019c57600080fd5b506101b760048036038101906101b29190610537565b61040e565b005b6101c161038b565b6101ca57600080fd5b60006001819055503373ffffffffffffffffffffffffffffffffffffffff166108fc6001549081150290604051600060405180830381858888f1935050505015801561021a573d6000803e3d6000fd5b50565b60025481565b60015481565b61023161038b565b61023a57600080fd5b600073ffffffffffffffffffffffffffffffffffffffff1660008054906101000a900473ffffffffffffffffffffffffffffffffffffffff1673ffffffffffffffffffffffffffffffffffffffff167f8be0079c531659141344cd1fd0a4f28419497f9722a3daafe3b4186f6b6457e060405160405180910390a360008060006101000a81548173ffffffffffffffffffffffffffffffffffffffff021916908373ffffffffffffffffffffffffffffffffffffffff160217905550565b61030061038b565b61030957600080fd5b600060018190555060006002819055503373ffffffffffffffffffffffffffffffffffffffff166108fc479081150290604051600060405180830381858888f1935050505015801561035f573d6000803e3d6000fd5b50565b60008060009054906101000a900473ffffffffffffffffffffffffffffffffffffffff16905090565b60008060009054906101000a900473ffffffffffffffffffffffffffffffffffffffff1673ffffffffffffffffffffffffffffffffffffffff163373ffffffffffffffffffffffffffffffffffffffff1614905090565b6103ea61038b565b6103f357600080fd5b346001600082825461040591906105de565b92505081905550565b61041661038b565b61041f57600080fd5b6104288161042b565b50565b600073ffffffffffffffffffffffffffffffffffffffff168173ffffffffffffffffffffffffffffffffffffffff16141561046557600080fd5b8073ffffffffffffffffffffffffffffffffffffffff1660008054906101000a900473ffffffffffffffffffffffffffffffffffffffff1673ffffffffffffffffffffffffffffffffffffffff167f8be0079c531659141344cd1fd0a4f28419497f9722a3daafe3b4186f6b6457e060405160405180910390a3806000806101000a81548173ffffffffffffffffffffffffffffffffffffffff021916908373ffffffffffffffffffffffffffffffffffffffff16021790555050565b600081359050610531816106ab565b92915050565b60006020828403121561054957600080fd5b600061055784828501610522565b91505092915050565b61056981610634565b82525050565b61057881610646565b82525050565b61058781610672565b82525050565b60006020820190506105a26000830184610560565b92915050565b60006020820190506105bd600083018461056f565b92915050565b60006020820190506105d8600083018461057e565b92915050565b60006105e982610672565b91506105f483610672565b9250827fffffffffffffffffffffffffffffffffffffffffffffffffffffffffffffffff038211156106295761062861067c565b5b828201905092915050565b600061063f82610652565b9050919050565b60008115159050919050565b600073ffffffffffffffffffffffffffffffffffffffff82169050919050565b6000819050919050565b7f4e487b7100000000000000000000000000000000000000000000000000000000600052601160045260246000fd5b6106b481610634565b81146106bf57600080fd5b5056fea2646970667358221220ec9a2a672c862659b38ff8ee8baa62feb27bd523db885885a88ffd4409fa956c64736f6c63430008040033",
  "linkReferences": {},
  "deployedLinkReferences": {}
}