{
  "_format": "hh-sol-artifact-1",
  "contractName": "GasClaim",
  "sourceName": "contracts/GasClaim.sol",
  "abi": [
    {
      "inputs": [
        {
          "internalType": "uint256",
          "name": "_timeBetweenClaim",
          "type": "uint256"
        }
      ],
      "stateMutability": "nonpayable",
      "type": "constructor"
    },
    {
      "anonymous": false,
      "inputs": [
        {
          "indexed": true,
          "internalType": "address",
          "name": "previousOwner",
          "type": "address"
        },
        {
          "indexed": true,
          "internalType": "address",
          "name": "newOwner",
          "type": "address"
        }
      ],
      "name": "OwnershipTransferred",
      "type": "event"
    },
    {
      "inputs": [
        {
          "internalType": "address",
          "name": "_address",
          "type": "address"
        }
      ],
      "name": "addWallet",
      "outputs": [],
      "stateMutability": "nonpayable",
      "type": "function"
    },
    {
      "inputs": [],
      "name": "availableFunds",
      "outputs": [
        {
          "internalType": "uint256",
          "name": "",
          "type": "uint256"
        }
      ],
      "stateMutability": "view",
      "type": "function"
    },
    {
      "inputs": [
        {
          "internalType": "address",
          "name": "_address",
          "type": "address"
        },
        {
          "internalType": "uint256",
          "name": "_amount",
          "type": "uint256"
        }
      ],
      "name": "claim",
      "outputs": [],
      "stateMutability": "payable",
      "type": "function"
    },
    {
      "inputs": [],
      "name": "externalFunds",
      "outputs": [
        {
          "internalType": "uint256",
          "name": "",
          "type": "uint256"
        }
      ],
      "stateMutability": "view",
      "type": "function"
    },
    {
      "inputs": [],
      "name": "fund",
      "outputs": [],
      "stateMutability": "payable",
      "type": "function"
    },
    {
      "inputs": [],
      "name": "isOwner",
      "outputs": [
        {
          "internalType": "bool",
          "name": "",
          "type": "bool"
        }
      ],
      "stateMutability": "view",
      "type": "function"
    },
    {
      "inputs": [],
      "name": "owner",
      "outputs": [
        {
          "internalType": "address",
          "name": "",
          "type": "address"
        }
      ],
      "stateMutability": "view",
      "type": "function"
    },
    {
      "inputs": [
        {
          "internalType": "address",
          "name": "_address",
          "type": "address"
        }
      ],
      "name": "removeWallet",
      "outputs": [],
      "stateMutability": "nonpayable",
      "type": "function"
    },
    {
      "inputs": [],
      "name": "renounceOwnership",
      "outputs": [],
      "stateMutability": "nonpayable",
      "type": "function"
    },
    {
      "inputs": [
        {
          "internalType": "uint256",
          "name": "_timeBetweenClaim",
          "type": "uint256"
        }
      ],
      "name": "setTimeBetweenClaim",
      "outputs": [],
      "stateMutability": "nonpayable",
      "type": "function"
    },
    {
      "inputs": [],
      "name": "timeBetweenClaim",
      "outputs": [
        {
          "internalType": "uint256",
          "name": "",
          "type": "uint256"
        }
      ],
      "stateMutability": "view",
      "type": "function"
    },
    {
      "inputs": [
        {
          "internalType": "address",
          "name": "newOwner",
          "type": "address"
        }
      ],
      "name": "transferOwnership",
      "outputs": [],
      "stateMutability": "nonpayable",
      "type": "function"
    },
    {
      "inputs": [
        {
          "internalType": "address",
          "name": "",
          "type": "address"
        }
      ],
      "name": "wallets",
      "outputs": [
        {
          "internalType": "uint256",
          "name": "",
          "type": "uint256"
        }
      ],
      "stateMutability": "view",
      "type": "function"
    },
    {
      "inputs": [],
      "name": "withdrawAll",
      "outputs": [],
      "stateMutability": "payable",
      "type": "function"
    },
    {
      "inputs": [],
      "name": "withdrawFunds",
      "outputs": [],
      "stateMutability": "payable",
      "type": "function"
    },
    {
      "stateMutability": "payable",
      "type": "receive"
    }
  ],
  "bytecode": "0x60806040526000600155600060025534801561001a57600080fd5b50604051611059380380611059833981810160405281019061003c9190610119565b336000806101000a81548173ffffffffffffffffffffffffffffffffffffffff021916908373ffffffffffffffffffffffffffffffffffffffff16021790555060008054906101000a900473ffffffffffffffffffffffffffffffffffffffff1673ffffffffffffffffffffffffffffffffffffffff16600073ffffffffffffffffffffffffffffffffffffffff167f8be0079c531659141344cd1fd0a4f28419497f9722a3daafe3b4186f6b6457e060405160405180910390a38060038190555050610163565b6000815190506101138161014c565b92915050565b60006020828403121561012b57600080fd5b600061013984828501610104565b91505092915050565b6000819050919050565b61015581610142565b811461016057600080fd5b50565b610ee7806101726000396000f3fe6080604052600436106100ec5760003560e01c806389b08f111161008a578063aad3ec9611610059578063aad3ec96146102a2578063b60d4288146102be578063efeb5f1f146102c8578063f2fde38b146102f15761010c565b806389b08f11146101e65780638da5cb5b146102235780638f32d59b1461024e578063a75fe8e1146102795761010c565b806342bf52e0116100c657806342bf52e01461016f57806346fcff4c1461019a578063715018a6146101c5578063853828b6146101dc5761010c565b80631f7d02da1461011157806324600fc31461013c5780632905ad9b146101465761010c565b3661010c5734600260008282546101039190610cb8565b92505081905550005b600080fd5b34801561011d57600080fd5b5061012661031a565b6040516101339190610c8c565b60405180910390f35b610144610320565b005b34801561015257600080fd5b5061016d60048036038101906101689190610af4565b610384565b005b34801561017b57600080fd5b5061018461039f565b6040516101919190610c8c565b60405180910390f35b3480156101a657600080fd5b506101af6103a5565b6040516101bc9190610c8c565b60405180910390f35b3480156101d157600080fd5b506101da6103ab565b005b6101e461047a565b005b3480156101f257600080fd5b5061020d60048036038101906102089190610a8f565b6104e4565b60405161021a9190610c8c565b60405180910390f35b34801561022f57600080fd5b506102386104fc565b6040516102459190610bd6565b60405180910390f35b34801561025a57600080fd5b50610263610525565b6040516102709190610bf1565b60405180910390f35b34801561028557600080fd5b506102a0600480360381019061029b9190610a8f565b61057c565b005b6102bc60048036038101906102b79190610ab8565b610655565b005b6102c661084b565b005b3480156102d457600080fd5b506102ef60048036038101906102ea9190610a8f565b610877565b005b3480156102fd57600080fd5b5061031860048036038101906103139190610a8f565b610951565b005b60035481565b610328610525565b61033157600080fd5b60006001819055503373ffffffffffffffffffffffffffffffffffffffff166108fc6001549081150290604051600060405180830381858888f19350505050158015610381573d6000803e3d6000fd5b50565b61038c610525565b61039557600080fd5b8060038190555050565b60025481565b60015481565b6103b3610525565b6103bc57600080fd5b600073ffffffffffffffffffffffffffffffffffffffff1660008054906101000a900473ffffffffffffffffffffffffffffffffffffffff1673ffffffffffffffffffffffffffffffffffffffff167f8be0079c531659141344cd1fd0a4f28419497f9722a3daafe3b4186f6b6457e060405160405180910390a360008060006101000a81548173ffffffffffffffffffffffffffffffffffffffff021916908373ffffffffffffffffffffffffffffffffffffffff160217905550565b610482610525565b61048b57600080fd5b600060018190555060006002819055503373ffffffffffffffffffffffffffffffffffffffff166108fc479081150290604051600060405180830381858888f193505050501580156104e1573d6000803e3d6000fd5b50565b60046020528060005260406000206000915090505481565b60008060009054906101000a900473ffffffffffffffffffffffffffffffffffffffff16905090565b60008060009054906101000a900473ffffffffffffffffffffffffffffffffffffffff1673ffffffffffffffffffffffffffffffffffffffff163373ffffffffffffffffffffffffffffffffffffffff1614905090565b610584610525565b61058d57600080fd5b6000600460008373ffffffffffffffffffffffffffffffffffffffff1673ffffffffffffffffffffffffffffffffffffffff168152602001908152602001600020541161060f576040517f08c379a000000000000000000000000000000000000000000000000000000000815260040161060690610c0c565b60405180910390fd5b600460008273ffffffffffffffffffffffffffffffffffffffff1673ffffffffffffffffffffffffffffffffffffffff1681526020019081526020016000206000905550565b61065d610525565b61066657600080fd5b6000600460008473ffffffffffffffffffffffffffffffffffffffff1673ffffffffffffffffffffffffffffffffffffffff16815260200190815260200160002054116106e8576040517f08c379a00000000000000000000000000000000000000000000000000000000081526004016106df90610c0c565b60405180910390fd5b80600154101561072d576040517f08c379a000000000000000000000000000000000000000000000000000000000815260040161072490610c4c565b60405180910390fd5b600354600460008473ffffffffffffffffffffffffffffffffffffffff1673ffffffffffffffffffffffffffffffffffffffff168152602001908152602001600020544261077b9190610d0e565b10156107bc576040517f08c379a00000000000000000000000000000000000000000000000000000000081526004016107b390610c6c565b60405180910390fd5b42600460008473ffffffffffffffffffffffffffffffffffffffff1673ffffffffffffffffffffffffffffffffffffffff168152602001908152602001600020819055508173ffffffffffffffffffffffffffffffffffffffff166108fc829081150290604051600060405180830381858888f19350505050158015610846573d6000803e3d6000fd5b505050565b610853610525565b61085c57600080fd5b346001600082825461086e9190610cb8565b92505081905550565b61087f610525565b61088857600080fd5b6000600460008373ffffffffffffffffffffffffffffffffffffffff1673ffffffffffffffffffffffffffffffffffffffff168152602001908152602001600020541461090a576040517f08c379a000000000000000000000000000000000000000000000000000000000815260040161090190610c2c565b60405180910390fd5b42600460008373ffffffffffffffffffffffffffffffffffffffff1673ffffffffffffffffffffffffffffffffffffffff1681526020019081526020016000208190555050565b610959610525565b61096257600080fd5b61096b8161096e565b50565b600073ffffffffffffffffffffffffffffffffffffffff168173ffffffffffffffffffffffffffffffffffffffff1614156109a857600080fd5b8073ffffffffffffffffffffffffffffffffffffffff1660008054906101000a900473ffffffffffffffffffffffffffffffffffffffff1673ffffffffffffffffffffffffffffffffffffffff167f8be0079c531659141344cd1fd0a4f28419497f9722a3daafe3b4186f6b6457e060405160405180910390a3806000806101000a81548173ffffffffffffffffffffffffffffffffffffffff021916908373ffffffffffffffffffffffffffffffffffffffff16021790555050565b600081359050610a7481610e83565b92915050565b600081359050610a8981610e9a565b92915050565b600060208284031215610aa157600080fd5b6000610aaf84828501610a65565b91505092915050565b60008060408385031215610acb57600080fd5b6000610ad985828601610a65565b9250506020610aea85828601610a7a565b9150509250929050565b600060208284031215610b0657600080fd5b6000610b1484828501610a7a565b91505092915050565b610b2681610d42565b82525050565b610b3581610d54565b82525050565b6000610b48601583610ca7565b9150610b5382610db9565b602082019050919050565b6000610b6b601583610ca7565b9150610b7682610de2565b602082019050919050565b6000610b8e601e83610ca7565b9150610b9982610e0b565b602082019050919050565b6000610bb1602583610ca7565b9150610bbc82610e34565b604082019050919050565b610bd081610d80565b82525050565b6000602082019050610beb6000830184610b1d565b92915050565b6000602082019050610c066000830184610b2c565b92915050565b60006020820190508181036000830152610c2581610b3b565b9050919050565b60006020820190508181036000830152610c4581610b5e565b9050919050565b60006020820190508181036000830152610c6581610b81565b9050919050565b60006020820190508181036000830152610c8581610ba4565b9050919050565b6000602082019050610ca16000830184610bc7565b92915050565b600082825260208201905092915050565b6000610cc382610d80565b9150610cce83610d80565b9250827fffffffffffffffffffffffffffffffffffffffffffffffffffffffffffffffff03821115610d0357610d02610d8a565b5b828201905092915050565b6000610d1982610d80565b9150610d2483610d80565b925082821015610d3757610d36610d8a565b5b828203905092915050565b6000610d4d82610d60565b9050919050565b60008115159050919050565b600073ffffffffffffffffffffffffffffffffffffffff82169050919050565b6000819050919050565b7f4e487b7100000000000000000000000000000000000000000000000000000000600052601160045260246000fd5b7f41646472657373206e6f7420617661696c61626c650000000000000000000000600082015250565b7f4164647265737320616c72656164792061646465640000000000000000000000600082015250565b7f496e73756666696369656e742066756e647320696e20636f6e74726163740000600082015250565b7f547279696e6720746f20636c61696d2074686973206164647265737320746f6f60008201527f20736f6f6e000000000000000000000000000000000000000000000000000000602082015250565b610e8c81610d42565b8114610e9757600080fd5b50565b610ea381610d80565b8114610eae57600080fd5b5056fea2646970667358221220cdc3a1088aec806f8088c1cdadd2830dc143234ad9f60c9c1817a5ba2ba9cf9664736f6c63430008040033",
  "linkReferences": {},
  "deployedLinkReferences": {}
}