{
  "_format": "hh-sol-artifact-1",
  "contractName": "GasClaim",
  "sourceName": "contracts/GasClaim.sol",
  "abi": [
    {
      "inputs": [
        {
          "internalType": "uint256",
          "name": "_timeBetweenClaim",
          "type": "uint256"
        }
      ],
      "stateMutability": "nonpayable",
      "type": "constructor"
    },
    {
      "anonymous": false,
      "inputs": [
        {
          "indexed": true,
          "internalType": "address",
          "name": "previousOwner",
          "type": "address"
        },
        {
          "indexed": true,
          "internalType": "address",
          "name": "newOwner",
          "type": "address"
        }
      ],
      "name": "OwnershipTransferred",
      "type": "event"
    },
    {
      "inputs": [
        {
          "internalType": "address",
          "name": "_address",
          "type": "address"
        }
      ],
      "name": "addWallet",
      "outputs": [],
      "stateMutability": "nonpayable",
      "type": "function"
    },
    {
      "inputs": [],
      "name": "availableFunds",
      "outputs": [
        {
          "internalType": "uint256",
          "name": "",
          "type": "uint256"
        }
      ],
      "stateMutability": "view",
      "type": "function"
    },
    {
      "inputs": [
        {
          "internalType": "address",
          "name": "_address",
          "type": "address"
        },
        {
          "internalType": "uint256",
          "name": "_amount",
          "type": "uint256"
        }
      ],
      "name": "claim",
      "outputs": [],
      "stateMutability": "nonpayable",
      "type": "function"
    },
    {
      "inputs": [],
      "name": "externalFunds",
      "outputs": [
        {
          "internalType": "uint256",
          "name": "",
          "type": "uint256"
        }
      ],
      "stateMutability": "view",
      "type": "function"
    },
    {
      "inputs": [],
      "name": "fund",
      "outputs": [],
      "stateMutability": "payable",
      "type": "function"
    },
    {
      "inputs": [],
      "name": "isOwner",
      "outputs": [
        {
          "internalType": "bool",
          "name": "",
          "type": "bool"
        }
      ],
      "stateMutability": "view",
      "type": "function"
    },
    {
      "inputs": [],
      "name": "owner",
      "outputs": [
        {
          "internalType": "address",
          "name": "",
          "type": "address"
        }
      ],
      "stateMutability": "view",
      "type": "function"
    },
    {
      "inputs": [
        {
          "internalType": "address",
          "name": "_address",
          "type": "address"
        }
      ],
      "name": "removeWallet",
      "outputs": [],
      "stateMutability": "nonpayable",
      "type": "function"
    },
    {
      "inputs": [],
      "name": "renounceOwnership",
      "outputs": [],
      "stateMutability": "nonpayable",
      "type": "function"
    },
    {
      "inputs": [
        {
          "internalType": "uint256",
          "name": "_timeBetweenClaim",
          "type": "uint256"
        }
      ],
      "name": "setTimeBetweenClaim",
      "outputs": [],
      "stateMutability": "nonpayable",
      "type": "function"
    },
    {
      "inputs": [],
      "name": "timeBetweenClaim",
      "outputs": [
        {
          "internalType": "uint256",
          "name": "",
          "type": "uint256"
        }
      ],
      "stateMutability": "view",
      "type": "function"
    },
    {
      "inputs": [
        {
          "internalType": "address",
          "name": "newOwner",
          "type": "address"
        }
      ],
      "name": "transferOwnership",
      "outputs": [],
      "stateMutability": "nonpayable",
      "type": "function"
    },
    {
      "inputs": [
        {
          "internalType": "address",
          "name": "",
          "type": "address"
        }
      ],
      "name": "wallets",
      "outputs": [
        {
          "internalType": "uint256",
          "name": "",
          "type": "uint256"
        }
      ],
      "stateMutability": "view",
      "type": "function"
    },
    {
      "inputs": [],
      "name": "withdrawAll",
      "outputs": [],
      "stateMutability": "payable",
      "type": "function"
    },
    {
      "inputs": [],
      "name": "withdrawFunds",
      "outputs": [],
      "stateMutability": "payable",
      "type": "function"
    },
    {
      "stateMutability": "payable",
      "type": "receive"
    }
  ],
  "bytecode": "0x60806040526000600155600060025534801561001a57600080fd5b5060405161105f38038061105f833981810160405281019061003c9190610119565b336000806101000a81548173ffffffffffffffffffffffffffffffffffffffff021916908373ffffffffffffffffffffffffffffffffffffffff16021790555060008054906101000a900473ffffffffffffffffffffffffffffffffffffffff1673ffffffffffffffffffffffffffffffffffffffff16600073ffffffffffffffffffffffffffffffffffffffff167f8be0079c531659141344cd1fd0a4f28419497f9722a3daafe3b4186f6b6457e060405160405180910390a38060038190555050610163565b6000815190506101138161014c565b92915050565b60006020828403121561012b57600080fd5b600061013984828501610104565b91505092915050565b6000819050919050565b61015581610142565b811461016057600080fd5b50565b610eed806101726000396000f3fe6080604052600436106100ec5760003560e01c806389b08f111161008a578063aad3ec9611610059578063aad3ec96146102a2578063b60d4288146102cb578063efeb5f1f146102d5578063f2fde38b146102fe5761010c565b806389b08f11146101e65780638da5cb5b146102235780638f32d59b1461024e578063a75fe8e1146102795761010c565b806342bf52e0116100c657806342bf52e01461016f57806346fcff4c1461019a578063715018a6146101c5578063853828b6146101dc5761010c565b80631f7d02da1461011157806324600fc31461013c5780632905ad9b146101465761010c565b3661010c5734600260008282546101039190610ce4565b92505081905550005b600080fd5b34801561011d57600080fd5b50610126610327565b6040516101339190610cb8565b60405180910390f35b61014461032d565b005b34801561015257600080fd5b5061016d60048036038101906101689190610b20565b610391565b005b34801561017b57600080fd5b506101846103ac565b6040516101919190610cb8565b60405180910390f35b3480156101a657600080fd5b506101af6103b2565b6040516101bc9190610cb8565b60405180910390f35b3480156101d157600080fd5b506101da6103b8565b005b6101e4610487565b005b3480156101f257600080fd5b5061020d60048036038101906102089190610abb565b6104f1565b60405161021a9190610cb8565b60405180910390f35b34801561022f57600080fd5b50610238610509565b6040516102459190610c02565b60405180910390f35b34801561025a57600080fd5b50610263610532565b6040516102709190610c1d565b60405180910390f35b34801561028557600080fd5b506102a0600480360381019061029b9190610abb565b610589565b005b3480156102ae57600080fd5b506102c960048036038101906102c49190610ae4565b610662565b005b6102d3610877565b005b3480156102e157600080fd5b506102fc60048036038101906102f79190610abb565b6108a3565b005b34801561030a57600080fd5b5061032560048036038101906103209190610abb565b61097d565b005b60035481565b610335610532565b61033e57600080fd5b60006001819055503373ffffffffffffffffffffffffffffffffffffffff166108fc6001549081150290604051600060405180830381858888f1935050505015801561038e573d6000803e3d6000fd5b50565b610399610532565b6103a257600080fd5b8060038190555050565b60025481565b60015481565b6103c0610532565b6103c957600080fd5b600073ffffffffffffffffffffffffffffffffffffffff1660008054906101000a900473ffffffffffffffffffffffffffffffffffffffff1673ffffffffffffffffffffffffffffffffffffffff167f8be0079c531659141344cd1fd0a4f28419497f9722a3daafe3b4186f6b6457e060405160405180910390a360008060006101000a81548173ffffffffffffffffffffffffffffffffffffffff021916908373ffffffffffffffffffffffffffffffffffffffff160217905550565b61048f610532565b61049857600080fd5b600060018190555060006002819055503373ffffffffffffffffffffffffffffffffffffffff166108fc479081150290604051600060405180830381858888f193505050501580156104ee573d6000803e3d6000fd5b50565b60046020528060005260406000206000915090505481565b60008060009054906101000a900473ffffffffffffffffffffffffffffffffffffffff16905090565b60008060009054906101000a900473ffffffffffffffffffffffffffffffffffffffff1673ffffffffffffffffffffffffffffffffffffffff163373ffffffffffffffffffffffffffffffffffffffff1614905090565b610591610532565b61059a57600080fd5b6000600460008373ffffffffffffffffffffffffffffffffffffffff1673ffffffffffffffffffffffffffffffffffffffff168152602001908152602001600020541161061c576040517f08c379a000000000000000000000000000000000000000000000000000000000815260040161061390610c38565b60405180910390fd5b600460008273ffffffffffffffffffffffffffffffffffffffff1673ffffffffffffffffffffffffffffffffffffffff1681526020019081526020016000206000905550565b61066a610532565b61067357600080fd5b6000600460008473ffffffffffffffffffffffffffffffffffffffff1673ffffffffffffffffffffffffffffffffffffffff16815260200190815260200160002054116106f5576040517f08c379a00000000000000000000000000000000000000000000000000000000081526004016106ec90610c38565b60405180910390fd5b600081600154101590508061073f576040517f08c379a000000000000000000000000000000000000000000000000000000000815260040161073690610c58565b60405180910390fd5b600354600460008573ffffffffffffffffffffffffffffffffffffffff1673ffffffffffffffffffffffffffffffffffffffff168152602001908152602001600020544261078d9190610d3a565b10156107ce576040517f08c379a00000000000000000000000000000000000000000000000000000000081526004016107c590610c98565b60405180910390fd5b81600160008282546107e09190610d3a565b9250508190555042600460008573ffffffffffffffffffffffffffffffffffffffff1673ffffffffffffffffffffffffffffffffffffffff168152602001908152602001600020819055508273ffffffffffffffffffffffffffffffffffffffff166108fc839081150290604051600060405180830381858888f19350505050158015610871573d6000803e3d6000fd5b50505050565b61087f610532565b61088857600080fd5b346001600082825461089a9190610ce4565b92505081905550565b6108ab610532565b6108b457600080fd5b6000600460008373ffffffffffffffffffffffffffffffffffffffff1673ffffffffffffffffffffffffffffffffffffffff1681526020019081526020016000205414610936576040517f08c379a000000000000000000000000000000000000000000000000000000000815260040161092d90610c78565b60405180910390fd5b42600460008373ffffffffffffffffffffffffffffffffffffffff1673ffffffffffffffffffffffffffffffffffffffff1681526020019081526020016000208190555050565b610985610532565b61098e57600080fd5b6109978161099a565b50565b600073ffffffffffffffffffffffffffffffffffffffff168173ffffffffffffffffffffffffffffffffffffffff1614156109d457600080fd5b8073ffffffffffffffffffffffffffffffffffffffff1660008054906101000a900473ffffffffffffffffffffffffffffffffffffffff1673ffffffffffffffffffffffffffffffffffffffff167f8be0079c531659141344cd1fd0a4f28419497f9722a3daafe3b4186f6b6457e060405160405180910390a3806000806101000a81548173ffffffffffffffffffffffffffffffffffffffff021916908373ffffffffffffffffffffffffffffffffffffffff16021790555050565b600081359050610aa081610e89565b92915050565b600081359050610ab581610ea0565b92915050565b600060208284031215610acd57600080fd5b6000610adb84828501610a91565b91505092915050565b60008060408385031215610af757600080fd5b6000610b0585828601610a91565b9250506020610b1685828601610aa6565b9150509250929050565b600060208284031215610b3257600080fd5b6000610b4084828501610aa6565b91505092915050565b610b5281610d6e565b82525050565b610b6181610d80565b82525050565b6000610b74601583610cd3565b9150610b7f82610de5565b602082019050919050565b6000610b97601083610cd3565b9150610ba282610e0e565b602082019050919050565b6000610bba601583610cd3565b9150610bc582610e37565b602082019050919050565b6000610bdd600e83610cd3565b9150610be882610e60565b602082019050919050565b610bfc81610dac565b82525050565b6000602082019050610c176000830184610b49565b92915050565b6000602082019050610c326000830184610b58565b92915050565b60006020820190508181036000830152610c5181610b67565b9050919050565b60006020820190508181036000830152610c7181610b8a565b9050919050565b60006020820190508181036000830152610c9181610bad565b9050919050565b60006020820190508181036000830152610cb181610bd0565b9050919050565b6000602082019050610ccd6000830184610bf3565b92915050565b600082825260208201905092915050565b6000610cef82610dac565b9150610cfa83610dac565b9250827fffffffffffffffffffffffffffffffffffffffffffffffffffffffffffffffff03821115610d2f57610d2e610db6565b5b828201905092915050565b6000610d4582610dac565b9150610d5083610dac565b925082821015610d6357610d62610db6565b5b828203905092915050565b6000610d7982610d8c565b9050919050565b60008115159050919050565b600073ffffffffffffffffffffffffffffffffffffffff82169050919050565b6000819050919050565b7f4e487b7100000000000000000000000000000000000000000000000000000000600052601160045260246000fd5b7f41646472657373206e6f7420617661696c61626c650000000000000000000000600082015250565b7f4e6f7420656e6f7567682066756e647300000000000000000000000000000000600082015250565b7f4164647265737320616c72656164792061646465640000000000000000000000600082015250565b7f436c61696d20746f6f20736f6f6e000000000000000000000000000000000000600082015250565b610e9281610d6e565b8114610e9d57600080fd5b50565b610ea981610dac565b8114610eb457600080fd5b5056fea2646970667358221220f617226b7b47acd1960511be435fda7d895654a65580dcfd581cc995769abf9c64736f6c63430008040033",
  "linkReferences": {},
  "deployedLinkReferences": {}
}